:0400000007EF00F016
:0A0008006A822CED09F06FEF0BF097
:101000000000010E4D6E4750D8B409EF08F00BEF09
:1010100008F029EF08F04750D96EDA6ADF50070B65
:10102000486E050E486017EF08F019EF08F029EF39
:1010300008F04750D96EDA6ADF30E832E832070B41
:10104000486E070E486427EF08F029EF08F07FEF9D
:1010500008F04D6A95EF08F04750D96EDA6ADF3034
:10106000E832E832070B486E010E496E482A3BEF22
:1010700008F0D8904936482E39EF08F04950FF0A59
:101080004A6E4750D96EDA6ADF50070B020DF350F3
:10109000150FD96EDA6ADECF4BF0DDCF4CF04BC0C6
:1010A000D9FF4CC0DAFF4A50DF1695EF08F04750E1
:1010B000D96EDA6ADF30E832E832070B486E010E8B
:1010C000496E482A66EF08F0D8904936482E64EFFA
:1010D00008F04750D96EDA6ADF50070B020DF35063
:1010E000150FD96EDA6ADECF4AF0DDCF4BF04AC079
:1010F000D9FF4BC0DAFF4950DF1295EF08F0475097
:10110000D96EDA6ADFBC87EF08F08AEF08F0010ECB
:101110008BEF08F0000E000AD8B42CEF08F0010A9B
:10112000D8B457EF08F029EF08F04D501200010E27
:101130004E6E4750D8B49FEF08F0A1EF08F0BFEF14
:1011400008F04750D96EDA6ADF50070B496E050E7A
:101150004960ADEF08F0AFEF08F0BFEF08F047507F
:10116000D96EDA6ADF30E832E832070B496E070ED3
:101170004964BDEF08F0BFEF08F015EF09F04E6AC3
:101180002AEF09F04750D96EDA6ADF30E832E832E8
:10119000070B496E010E4A6E492AD1EF08F0D8902C
:1011A0004A36492ECFEF08F04750D96EDA6ADF5041
:1011B000070B020DF3500B0FD96EDA6ADECF4BF03E
:1011C000DDCF4CF04BC0D9FF4CC0DAFF4A50DF12E4
:1011D0002AEF09F04750D96EDA6ADF30E832E83298
:1011E000070B496E010E4A6E492AF9EF08F0D890B4
:1011F0004A36492EF7EF08F04A50FF0A4B6E475027
:10120000D96EDA6ADF50070B020DF3500B0FD96E5F
:10121000DA6ADECF4CF0DDCF4DF04CC0D9FF4DC0C7
:10122000DAFF4B50DF162AEF09F04850496E4A6A40
:101230004A50000AD8B41FEF09F0BFEF08F0495038
:10124000000AD8B4EAEF08F0010AD8B4C2EF08F0F7
:10125000BFEF08F04E5012000600D9CF43F0DACFAE
:1012600044F0F3CF45F0F4CF46F09EA03AEF09F0FA
:101270003CEF09F078EF09F05A505B10D8B443EF17
:1012800009F045EF09F078EF09F05F2A390E406E5A
:10129000FAEC0AF00A0E5F18D8A451EF09F053EFE8
:1012A00009F055EF09F05F6A5E2A060E5E18D8A4B1
:1012B0005CEF09F05EEF09F060EF09F05E6A5D2A0D
:1012C000060E5D18D8A467EF09F069EF09F06BEF1F
:1012D00009F05D6A5C2A060E5C18D8A472EF09F06A
:1012E00074EF09F075EF09F05C6A9E90CF6ACE6AE0
:1012F000F2A27DEF09F07FEF09F08DEF09F05A506F
:101300005B10D8B486EF09F089EF09F0010E8AEF7F
:1013100009F0000E5A6E5B6AF29246C0F4FF45C0B7
:10132000F3FF44C0DAFF43C0D9FF6A921100010EF7
:101330003F6E3A50D8B49FEF09F0A1EF09F0BFEF2C
:1013400009F03A50D96EDA6ADF50070B3B6E050E92
:101350003B60ADEF09F0AFEF09F0BFEF09F03A5095
:10136000D96EDA6ADF30E832E832070B3B6E070EDF
:101370003B64BDEF09F0BFEF09F0C2EF09F03F6A2F
:10138000E8EF09F03A50D96EDA6ADF30E832E83235
:10139000070B3B6E010E3C6E3B2AD1EF09F0D89053
:1013A0003C363B2ECFEF09F03A50D96EDA6ADF5067
:1013B000070B020DF3500B0FD96EDA6ADECF3DF04A
:1013C000DDCF3EF03DC0D9FF3EC0DAFF3C50DF1A12
:1013D0003F5012004F50D8B4F0EF09F0F2EF09F08F
:1013E000FAEF09F00A0E5064F8EF09F0FAEF09F08D
:1013F000FDEF09F0536A26EF0AF0000E556E000E5D
:10140000546E4F505424476E54C051F050C052F0A7
:10141000512A0DEF0AF0D8905232512E0BEF0AF0FC
:101420005250010B486E97EC08F0536E544A552AFF
:1014300055BE24EF0AF0555009E1040E545CD8A0C3
:1014400024EF0AF026EF0AF001EF0AF053501200E1
:1014500069C051F04E50D96EDA6ADF50070B4F6EFB
:1014600051504F18F80B4F18516E4E50D96EDA6A22
:10147000DF30E832E832070B4F6E4F464F464F469B
:1014800051504F18C70B4F18516E518C4E50D96E9A
:10149000DA6ADFAE02D0518E01D0519E4E50D8A4F0
:1014A00054EF0AF056EF0AF059EF0AF0506A5EEF77
:1014B0000AF0510E476E01EC08F0506E50501200C9
:1014C0004F50D8B466EF0AF068EF0AF086EF0AF0E2
:1014D0004F50D96EDA6ADF50070B506E050E506020
:1014E00074EF0AF076EF0AF086EF0AF04F50D96EEB
:1014F000DA6ADF30E832E832070B506E070E5064CC
:1015000084EF0AF086EF0AF089EF0AF0516A95EF4E
:101510000AF04FC047F001EC08F0516E4FC047F0A1
:10152000000E486E97EC08F0516E515012004FECCF
:101530000BF01F6E9D80F28CF28E000ECF6E000EAF
:10154000CE6ECD92CD88CD8ACD80F288F28CF28E8F
:10155000F19C330E4F6E5FC050F0EAEC09F01F6E45
:101560002E0E4F6E5EC050F0EAEC09F01F6E290E91
:101570004F6E5DC050F0EAEC09F01F6E240E4F6E06
:101580005CC050F0EAEC09F01F6EA9EF0AF007EF1B
:1015900000F063C055F05250D96EDA6ADF50070B85
:1015A000536E55505318F80B5318556E5250D96E50
:1015B000DA6ADF30E832E832070B536E534653469F
:1015C000534655505318C70B5318556E559C559E8E
:1015D0005250D8A4EEEF0AF0F0EF0AF0F3EF0AF061
:1015E000546AF8EF0AF0550E4F6E60EC0AF0546E34
:1015F0005450120060C042F04050D96EDA6ADF5099
:10160000070B416E42504118F80B4118426E405092
:10161000D96EDA6ADF30E832E832070B416E4146B4
:101620004146414642504118C70B4118426E429C08
:10163000429E4050D8A41FEF0BF021EF0BF023EF98
:101640000BF027EF0BF0420E3A6E97EC09F0120008
:101650005250D8A42EEF0BF030EF0BF033EF0BF01D
:10166000536A4DEF0BF0000E556E000E546E525043
:1016700054244F6E60EC0AF0536E544A552A55BEFE
:101680004BEF0BF0555009E1040E545CD8A04BEF22
:101690000BF04DEF0BF037EF0BF053501200330E01
:1016A000526E28EC0BF01F6E2E0E526E28EC0BF0D3
:1016B0001F6E290E526E28EC0BF01F6E240E526E18
:1016C00028EC0BF01F6E380E4E6E28EC0AF01F6EE1
:1016D000390E526EC9EC0AF01F6E1F501200180E20
:1016E000F66E170EF76E000EF86E00EE01F010EEBB
:1016F00039F00900F5CFEEFFE550E150FAE100EED8
:1017000056F0140EEE6AE806FDE16A906A92000E49
:10171000F86E000197EF0AF0800F810F820F830FA0
:10172000840F890F8A0F8B0F8C0F8D0F920F930FE1
:10173000940F950F960F012B23524A202830380121
:101740000008101801232B333B01030B131B01412D
:011750004256
:020000040030CA
:0E000000FF021F1EFF8185FF0FC00FE00F40A3
:00000001FF
